{
  "contractName": "MainContract",
  "abi": [
    {
      "anonymous": false,
      "inputs": [
        {
          "indexed": true,
          "name": "contractAddress",
          "type": "address"
        },
        {
          "indexed": false,
          "name": "amount",
          "type": "uint32"
        }
      ],
      "name": "released",
      "type": "event"
    },
    {
      "anonymous": false,
      "inputs": [
        {
          "indexed": true,
          "name": "id",
          "type": "uint32"
        },
        {
          "indexed": true,
          "name": "registration",
          "type": "bytes32"
        },
        {
          "indexed": false,
          "name": "contractAddress",
          "type": "address"
        },
        {
          "indexed": true,
          "name": "walletAddress",
          "type": "address"
        }
      ],
      "name": "newContract",
      "type": "event"
    },
    {
      "anonymous": false,
      "inputs": [
        {
          "indexed": true,
          "name": "validator_id",
          "type": "uint32"
        }
      ],
      "name": "newValidator",
      "type": "event"
    },
    {
      "anonymous": false,
      "inputs": [
        {
          "indexed": true,
          "name": "d_id",
          "type": "uint256"
        },
        {
          "indexed": true,
          "name": "d_sender",
          "type": "address"
        },
        {
          "indexed": true,
          "name": "d_contract",
          "type": "address"
        },
        {
          "indexed": false,
          "name": "d_amount",
          "type": "uint256"
        }
      ],
      "name": "donation",
      "type": "event"
    },
    {
      "anonymous": false,
      "inputs": [
        {
          "indexed": true,
          "name": "r_id",
          "type": "uint256"
        },
        {
          "indexed": true,
          "name": "con_Id",
          "type": "uint32"
        },
        {
          "indexed": false,
          "name": "amount",
          "type": "uint32"
        },
        {
          "indexed": false,
          "name": "proposed1",
          "type": "address"
        },
        {
          "indexed": false,
          "name": "proposed2",
          "type": "address"
        },
        {
          "indexed": false,
          "name": "proposed3",
          "type": "address"
        },
        {
          "indexed": false,
          "name": "proposed4",
          "type": "address"
        },
        {
          "indexed": false,
          "name": "proposed5",
          "type": "address"
        }
      ],
      "name": "request",
      "type": "event"
    },
    {
      "anonymous": false,
      "inputs": [
        {
          "indexed": true,
          "name": "_request_id",
          "type": "uint32"
        },
        {
          "indexed": true,
          "name": "_contract_id",
          "type": "uint32"
        },
        {
          "indexed": false,
          "name": "_judgement",
          "type": "bool"
        }
      ],
      "name": "request_result",
      "type": "event"
    },
    {
      "constant": false,
      "inputs": [
        {
          "name": "pvt",
          "type": "address"
        },
        {
          "name": "reg",
          "type": "bytes32"
        }
      ],
      "name": "createSubContract",
      "outputs": [
        {
          "name": "",
          "type": "address"
        }
      ],
      "payable": false,
      "stateMutability": "nonpayable",
      "type": "function"
    },
    {
      "constant": false,
      "inputs": [
        {
          "name": "d_id",
          "type": "uint256"
        },
        {
          "name": "d_contract",
          "type": "address"
        },
        {
          "name": "d_amount",
          "type": "uint256"
        }
      ],
      "name": "donate",
      "outputs": [],
      "payable": false,
      "stateMutability": "nonpayable",
      "type": "function"
    },
    {
      "constant": true,
      "inputs": [
        {
          "name": "add",
          "type": "address"
        }
      ],
      "name": "getBalance",
      "outputs": [
        {
          "name": "",
          "type": "uint256"
        }
      ],
      "payable": false,
      "stateMutability": "view",
      "type": "function"
    },
    {
      "constant": true,
      "inputs": [
        {
          "name": "add",
          "type": "address"
        }
      ],
      "name": "ifSeeded",
      "outputs": [
        {
          "name": "",
          "type": "bool"
        }
      ],
      "payable": false,
      "stateMutability": "view",
      "type": "function"
    },
    {
      "constant": false,
      "inputs": [
        {
          "name": "add",
          "type": "address"
        }
      ],
      "name": "requestSeeding",
      "outputs": [],
      "payable": false,
      "stateMutability": "nonpayable",
      "type": "function"
    },
    {
      "constant": false,
      "inputs": [
        {
          "name": "_add",
          "type": "address"
        }
      ],
      "name": "addValidator",
      "outputs": [],
      "payable": false,
      "stateMutability": "nonpayable",
      "type": "function"
    },
    {
      "constant": false,
      "inputs": [
        {
          "name": "id",
          "type": "uint32"
        }
      ],
      "name": "suspendValidator",
      "outputs": [],
      "payable": false,
      "stateMutability": "nonpayable",
      "type": "function"
    },
    {
      "constant": false,
      "inputs": [
        {
          "name": "id",
          "type": "uint32"
        }
      ],
      "name": "reactiveValidator",
      "outputs": [],
      "payable": false,
      "stateMutability": "nonpayable",
      "type": "function"
    },
    {
      "constant": false,
      "inputs": [
        {
          "name": "contrct_id",
          "type": "uint32"
        },
        {
          "name": "amount",
          "type": "uint32"
        }
      ],
      "name": "requestRelease",
      "outputs": [],
      "payable": false,
      "stateMutability": "nonpayable",
      "type": "function"
    },
    {
      "constant": false,
      "inputs": [
        {
          "name": "_request_id",
          "type": "uint32"
        },
        {
          "name": "ansr",
          "type": "bool"
        }
      ],
      "name": "validate",
      "outputs": [],
      "payable": false,
      "stateMutability": "nonpayable",
      "type": "function"
    },
    {
      "constant": false,
      "inputs": [
        {
          "name": "add",
          "type": "address"
        }
      ],
      "name": "getSubcontract",
      "outputs": [
        {
          "name": "",
          "type": "address"
        }
      ],
      "payable": false,
      "stateMutability": "nonpayable",
      "type": "function"
    }
  ],
  "bytecode": "0x6080604052336000806101000a81548173ffffffffffffffffffffffffffffffffffffffff021916908373ffffffffffffffffffffffffffffffffffffffff160217905550611ec8806100536000396000f3006080604052600436106100af576000357c0100000000000000000000000000000000000000000000000000000000900463ffffffff16806325fb2680146100b45780634d238c8e1461010b57806356f4502c1461014e5780636daf3126146101a95780636fc167fd146101ec57806371179d811461022b5780638309f44a1461025e578063ad9b5cc1146102ef578063b8cd856a14610372578063f8b2cb4f146103b5578063fdf3f5741461040c575b600080fd5b3480156100c057600080fd5b5061010960048036038101908080359060200190929190803573ffffffffffffffffffffffffffffffffffffffff1690602001909291908035906020019092919050505061043f565b005b34801561011757600080fd5b5061014c600480360381019080803573ffffffffffffffffffffffffffffffffffffffff1690602001909291905050506104aa565b005b34801561015a57600080fd5b5061018f600480360381019080803573ffffffffffffffffffffffffffffffffffffffff169060200190929190505050610650565b604051808215151515815260200191505060405180910390f35b3480156101b557600080fd5b506101ea600480360381019080803563ffffffff169060200190929190803563ffffffff1690602001909291905050506106fd565b005b3480156101f857600080fd5b50610229600480360381019080803563ffffffff169060200190929190803515159060200190929190505050611060565b005b34801561023757600080fd5b5061025c600480360381019080803563ffffffff169060200190929190505050611659565b005b34801561026a57600080fd5b506102ad600480360381019080803573ffffffffffffffffffffffffffffffffffffffff16906020019092919080356000191690602001909291905050506116f2565b604051808273ffffffffffffffffffffffffffffffffffffffff1673ffffffffffffffffffffffffffffffffffffffff16815260200191505060405180910390f35b3480156102fb57600080fd5b50610330600480360381019080803573ffffffffffffffffffffffffffffffffffffffff169060200190929190505050611920565b604051808273ffffffffffffffffffffffffffffffffffffffff1673ffffffffffffffffffffffffffffffffffffffff16815260200191505060405180910390f35b34801561037e57600080fd5b506103b3600480360381019080803573ffffffffffffffffffffffffffffffffffffffff16906020019092919050505061192f565b005b3480156103c157600080fd5b506103f6600480360381019080803573ffffffffffffffffffffffffffffffffffffffff1690602001909291905050506119b4565b6040518082815260200191505060405180910390f35b34801561041857600080fd5b5061043d600480360381019080803563ffffffff1690602001909291905050506119d5565b005b8173ffffffffffffffffffffffffffffffffffffffff163373ffffffffffffffffffffffffffffffffffffffff16847fc922dda2b15c47d368b5eee0cef2a2ae6926b4e3f3f6e23fecf2c3821234d9f9846040518082815260200191505060405180910390a4505050565b6000809054906101000a900473ffffffffffffffffffffffffffffffffffffffff1673ffffffffffffffffffffffffffffffffffffffff163373ffffffffffffffffffffffffffffffffffffffff1614151561050557600080fd5b60408051908101604052806001151581526020018273ffffffffffffffffffffffffffffffffffffffff16815250600260008060189054906101000a900463ffffffff1663ffffffff1663ffffffff16815260200190815260200160002060008201518160000160006101000a81548160ff02191690831515021790555060208201518160000160016101000a81548173ffffffffffffffffffffffffffffffffffffffff021916908373ffffffffffffffffffffffffffffffffffffffff160217905550905050600060189054906101000a900463ffffffff1663ffffffff167f01aacd5fb1299ae7e8a72d4d25337d42a03859d5a078df35497681474be66eb760405160405180910390a26000601881819054906101000a900463ffffffff168092919060010191906101000a81548163ffffffff021916908363ffffffff1602179055505050565b6000808290508073ffffffffffffffffffffffffffffffffffffffff1663e9b37bf66040518163ffffffff167c0100000000000000000000000000000000000000000000000000000000028152600401602060405180830381600087803b1580156106ba57600080fd5b505af11580156106ce573d6000803e3d6000fd5b505050506040513d60208110156106e457600080fd5b8101908080519060200190929190505050915050919050565b610200604051908101604052808363ffffffff168152602001600160008563ffffffff1663ffffffff16815260200190815260200160002060009054906101000a900473ffffffffffffffffffffffffffffffffffffffff1673ffffffffffffffffffffffffffffffffffffffff1681526020018263ffffffff168152602001600260008063ffffffff16815260200190815260200160002060000160019054906101000a900473ffffffffffffffffffffffffffffffffffffffff1673ffffffffffffffffffffffffffffffffffffffff16815260200160026000600163ffffffff16815260200190815260200160002060000160019054906101000a900473ffffffffffffffffffffffffffffffffffffffff1673ffffffffffffffffffffffffffffffffffffffff16815260200160026000600263ffffffff16815260200190815260200160002060000160019054906101000a900473ffffffffffffffffffffffffffffffffffffffff1673ffffffffffffffffffffffffffffffffffffffff16815260200160026000600363ffffffff16815260200190815260200160002060000160019054906101000a900473ffffffffffffffffffffffffffffffffffffffff1673ffffffffffffffffffffffffffffffffffffffff16815260200160026000600463ffffffff16815260200190815260200160002060000160019054906101000a900473ffffffffffffffffffffffffffffffffffffffff1673ffffffffffffffffffffffffffffffffffffffff168152602001600073ffffffffffffffffffffffffffffffffffffffff16815260200160008152602001600073ffffffffffffffffffffffffffffffffffffffff16815260200160008152602001600073ffffffffffffffffffffffffffffffffffffffff16815260200160008152602001600015158152602001600015158152506003600080601c9054906101000a900463ffffffff1663ffffffff1663ffffffff16815260200190815260200160002060008201518160000160006101000a81548163ffffffff021916908363ffffffff16021790555060208201518160000160046101000a81548173ffffffffffffffffffffffffffffffffffffffff021916908373ffffffffffffffffffffffffffffffffffffffff16021790555060408201518160000160186101000a81548163ffffffff021916908363ffffffff16021790555060608201518160010160006101000a81548173ffffffffffffffffffffffffffffffffffffffff021916908373ffffffffffffffffffffffffffffffffffffffff16021790555060808201518160020160006101000a81548173ffffffffffffffffffffffffffffffffffffffff021916908373ffffffffffffffffffffffffffffffffffffffff16021790555060a08201518160030160006101000a81548173ffffffffffffffffffffffffffffffffffffffff021916908373ffffffffffffffffffffffffffffffffffffffff16021790555060c08201518160040160006101000a81548173ffffffffffffffffffffffffffffffffffffffff021916908373ffffffffffffffffffffffffffffffffffffffff16021790555060e08201518160050160006101000a81548173ffffffffffffffffffffffffffffffffffffffff021916908373ffffffffffffffffffffffffffffffffffffffff1602179055506101008201518160060160006101000a81548173ffffffffffffffffffffffffffffffffffffffff021916908373ffffffffffffffffffffffffffffffffffffffff16021790555061012082015181600701556101408201518160080160006101000a81548173ffffffffffffffffffffffffffffffffffffffff021916908373ffffffffffffffffffffffffffffffffffffffff160217905550610160820151816009015561018082015181600a0160006101000a81548173ffffffffffffffffffffffffffffffffffffffff021916908373ffffffffffffffffffffffffffffffffffffffff1602179055506101a082015181600b01556101c082015181600c0160006101000a81548160ff0219169083151502179055506101e082015181600c0160016101000a81548160ff0219169083151502179055509050508163ffffffff166000601c9054906101000a900463ffffffff1663ffffffff167fbf462ad3578bfcb7a94e779d29eac6a181772f0bd8ec15f017424f71c11cb53c836003600080601c9054906101000a900463ffffffff1663ffffffff1663ffffffff16815260200190815260200160002060010160009054906101000a900473ffffffffffffffffffffffffffffffffffffffff166003600080601c9054906101000a900463ffffffff1663ffffffff1663ffffffff16815260200190815260200160002060020160009054906101000a900473ffffffffffffffffffffffffffffffffffffffff166003600080601c9054906101000a900463ffffffff1663ffffffff1663ffffffff16815260200190815260200160002060030160009054906101000a900473ffffffffffffffffffffffffffffffffffffffff166003600080601c9054906101000a900463ffffffff1663ffffffff1663ffffffff16815260200190815260200160002060040160009054906101000a900473ffffffffffffffffffffffffffffffffffffffff166003600080601c9054906101000a900463ffffffff1663ffffffff1663ffffffff16815260200190815260200160002060050160009054906101000a900473ffffffffffffffffffffffffffffffffffffffff16604051808763ffffffff1663ffffffff1681526020018673ffffffffffffffffffffffffffffffffffffffff1673ffffffffffffffffffffffffffffffffffffffff1681526020018573ffffffffffffffffffffffffffffffffffffffff1673ffffffffffffffffffffffffffffffffffffffff1681526020018473ffffffffffffffffffffffffffffffffffffffff1673ffffffffffffffffffffffffffffffffffffffff1681526020018373ffffffffffffffffffffffffffffffffffffffff1673ffffffffffffffffffffffffffffffffffffffff1681526020018273ffffffffffffffffffffffffffffffffffffffff1673ffffffffffffffffffffffffffffffffffffffff168152602001965050505050505060405180910390a36000601c81819054906101000a900463ffffffff168092919060010191906101000a81548163ffffffff021916908363ffffffff160217905550505050565b600080600360008563ffffffff1663ffffffff168152602001908152602001600020600701541415611155576001151582151514156110c6576001600360008563ffffffff1663ffffffff168152602001908152602001600020600701819055506110ef565b6002600360008563ffffffff1663ffffffff168152602001908152602001600020600701819055505b33600360008563ffffffff1663ffffffff16815260200190815260200160002060060160006101000a81548173ffffffffffffffffffffffffffffffffffffffff021916908373ffffffffffffffffffffffffffffffffffffffff160217905550611654565b6000600360008563ffffffff1663ffffffff168152602001908152602001600020600901541415611249576001151582151514156111ba576001600360008563ffffffff1663ffffffff168152602001908152602001600020600901819055506111e3565b6002600360008563ffffffff1663ffffffff168152602001908152602001600020600901819055505b33600360008563ffffffff1663ffffffff16815260200190815260200160002060080160006101000a81548173ffffffffffffffffffffffffffffffffffffffff021916908373ffffffffffffffffffffffffffffffffffffffff160217905550611653565b6000600360008563ffffffff1663ffffffff168152602001908152602001600020600b01541415611652576001151582151514156112ae576001600360008563ffffffff1663ffffffff168152602001908152602001600020600b01819055506112d7565b6002600360008563ffffffff1663ffffffff168152602001908152602001600020600b01819055505b33600360008563ffffffff1663ffffffff168152602001908152602001600020600a0160006101000a81548173ffffffffffffffffffffffffffffffffffffffff021916908373ffffffffffffffffffffffffffffffffffffffff1602179055506005600360008563ffffffff1663ffffffff168152602001908152602001600020600b0154600360008663ffffffff1663ffffffff16815260200190815260200160002060090154600360008763ffffffff1663ffffffff1681526020019081526020016000206007015401011015611530576001600360008563ffffffff1663ffffffff168152602001908152602001600020600c0160016101000a81548160ff0219169083151502179055506001600360008563ffffffff1663ffffffff168152602001908152602001600020600c0160006101000a81548160ff021916908315150217905550600360008463ffffffff1663ffffffff16815260200190815260200160002060000160049054906101000a900473ffffffffffffffffffffffffffffffffffffffff1690508073ffffffffffffffffffffffffffffffffffffffff1663dda42b37600360008663ffffffff1663ffffffff16815260200190815260200160002060000160189054906101000a900463ffffffff166040518263ffffffff167c0100000000000000000000000000000000000000000000000000000000028152600401808263ffffffff1663ffffffff168152602001915050600060405180830381600087803b15801561151357600080fd5b505af1158015611527573d6000803e3d6000fd5b505050506115a7565b6000600360008563ffffffff1663ffffffff168152602001908152602001600020600c0160016101000a81548160ff0219169083151502179055506001600360008563ffffffff1663ffffffff168152602001908152602001600020600c0160006101000a81548160ff0219169083151502179055505b600360008463ffffffff1663ffffffff16815260200190815260200160002060000160009054906101000a900463ffffffff1663ffffffff168363ffffffff167fac5fcc02740a04af29c8a65a5cb1bf6b1e4ef38000235ce6acea9ea3fc2277cd600360008763ffffffff1663ffffffff168152602001908152602001600020600c0160019054906101000a900460ff16604051808215151515815260200191505060405180910390a35b5b5b505050565b6000809054906101000a900473ffffffffffffffffffffffffffffffffffffffff1673ffffffffffffffffffffffffffffffffffffffff163373ffffffffffffffffffffffffffffffffffffffff161415156116b457600080fd5b6000600260008363ffffffff1663ffffffff16815260200190815260200160002060000160006101000a81548160ff02191690831515021790555050565b6000806000809054906101000a900473ffffffffffffffffffffffffffffffffffffffff1673ffffffffffffffffffffffffffffffffffffffff163373ffffffffffffffffffffffffffffffffffffffff1614151561175057600080fd5b600060149054906101000a900463ffffffff168461176c611a6e565b808363ffffffff1663ffffffff1681526020018273ffffffffffffffffffffffffffffffffffffffff1673ffffffffffffffffffffffffffffffffffffffff16815260200192505050604051809103906000f0801580156117d1573d6000803e3d6000fd5b50905080600160008060149054906101000a900463ffffffff1663ffffffff1663ffffffff16815260200190815260200160002060006101000a81548173ffffffffffffffffffffffffffffffffffffffff021916908373ffffffffffffffffffffffffffffffffffffffff1602179055508373ffffffffffffffffffffffffffffffffffffffff168360001916600060149054906101000a900463ffffffff1663ffffffff167ff511023068b88853e12756c72e7ee9d0864f173b6bc5bda808597d864fea954184604051808273ffffffffffffffffffffffffffffffffffffffff1673ffffffffffffffffffffffffffffffffffffffff16815260200191505060405180910390a46000601481819054906101000a900463ffffffff168092919060010191906101000a81548163ffffffff021916908363ffffffff160217905550508091505092915050565b60008082905080915050919050565b60008190508073ffffffffffffffffffffffffffffffffffffffff1663e63ab45f6040518163ffffffff167c0100000000000000000000000000000000000000000000000000000000028152600401600060405180830381600087803b15801561199857600080fd5b505af11580156119ac573d6000803e3d6000fd5b505050505050565b60008173ffffffffffffffffffffffffffffffffffffffff16319050919050565b6000809054906101000a900473ffffffffffffffffffffffffffffffffffffffff1673ffffffffffffffffffffffffffffffffffffffff163373ffffffffffffffffffffffffffffffffffffffff16141515611a3057600080fd5b6001600260008363ffffffff1663ffffffff16815260200190815260200160002060000160006101000a81548160ff02191690831515021790555050565b60405161041e80611a7f833901905600608060405260405160408061041e8339810180604052810190808051906020019092919080519060200190929190505050816000806101000a81548163ffffffff021916908363ffffffff16021790555033600160006101000a81548173ffffffffffffffffffffffffffffffffffffffff021916908373ffffffffffffffffffffffffffffffffffffffff16021790555080600060046101000a81548173ffffffffffffffffffffffffffffffffffffffff021916908373ffffffffffffffffffffffffffffffffffffffff160217905550505061033b806100e36000396000f300608060405260043610610057576000357c0100000000000000000000000000000000000000000000000000000000900463ffffffff168063dda42b3714610059578063e63ab45f1461008c578063e9b37bf614610096575b005b34801561006557600080fd5b5061008a600480360381019080803563ffffffff1690602001909291905050506100c5565b005b6100946101bc565b005b3480156100a257600080fd5b506100ab6102f8565b604051808215151515815260200191505060405180910390f35b8063ffffffff163073ffffffffffffffffffffffffffffffffffffffff16311115156100f057600080fd5b600060049054906101000a900473ffffffffffffffffffffffffffffffffffffffff1673ffffffffffffffffffffffffffffffffffffffff166108fc8263ffffffff169081150290604051600060405180830381858888f1935050505015801561015e573d6000803e3d6000fd5b503073ffffffffffffffffffffffffffffffffffffffff167f3b01ce667eee23eb5673590a6476637ce7e1cb4db6024b8490223b5665979d5082604051808263ffffffff1663ffffffff16815260200191505060405180910390a250565b60001515600160149054906101000a900460ff1615151415156101de57600080fd5b600a3073ffffffffffffffffffffffffffffffffffffffff163111151561020457600080fd5b600060049054906101000a900473ffffffffffffffffffffffffffffffffffffffff1673ffffffffffffffffffffffffffffffffffffffff166108fc600a9081150290604051600060405180830381858888f1935050505015801561026d573d6000803e3d6000fd5b5060018060146101000a81548160ff0219169083151502179055503073ffffffffffffffffffffffffffffffffffffffff167fd10e6e076638bde6b2253e70a33e7c64c330fcdfab04f52c0113307612ddf7d860405180807f3078536565646564000000000000000000000000000000000000000000000000815250602001905060405180910390a2565b6000600160149054906101000a900460ff169050905600a165627a7a72305820098e6bf54050c828cda310dc5b8ed4073e3b8c653333093d826b37f9a902108d0029a165627a7a72305820b4d9e111b1ed7bb20b7ae6dfedf4640f8902c2029e8451943ace9177e3b9042b0029",
  "source": "pragma solidity ^0.4.19;\r\n\r\ncontract Owned {\r\n    address owner;\r\n\r\n    modifier onlyowner() {\r\n        require(msg.sender == owner);\r\n        _;\r\n    }\r\n\r\n    constructor() public {\r\n        owner = msg.sender;\r\n    }\r\n}\r\n\r\ncontract MainContract is Owned {\r\n    uint32 contract_id;\r\n    uint32 validator_id;\r\n    uint32 request_id;\r\n\r\n    //mapping organization id to subcontracts\r\n    mapping(uint32 => address) subContracts;  \r\n    \r\n    //for validator management make tructure for validator\r\n    struct Validator {\r\n        bool isActive;\r\n        address addrs;\r\n    }\r\n    \r\n    mapping(uint32 => Validator) validators;\r\n    \r\n    //for requests management\r\n    struct Request {\r\n        uint32 conId;\r\n        address conAdd;\r\n        uint32 amount;\r\n        address proposed1;\r\n        address proposed2;\r\n        address proposed3;\r\n        address proposed4;\r\n        address proposed5;\r\n        \r\n        address validator1;\r\n        uint valid1;\r\n        address validator2;\r\n        uint valid2;\r\n        address validator3;\r\n        uint valid3;\r\n        bool isExamined;\r\n        bool judgement;\r\n    }\r\n\r\n    mapping(uint32 => Request) requests;\r\n    \r\n    event released(address indexed contractAddress, uint32 amount);\r\n\r\n    //log event for new registration of organization\r\n\tevent newContract(uint32 indexed id, bytes32 indexed registration, address contractAddress, address indexed walletAddress);\r\n    \r\n    //log event for new validator created\r\n\tevent newValidator(uint32 indexed validator_id);\r\n    \r\n    //log event for donation. shit!!!\r\n    event donation(uint256 indexed d_id, address indexed d_sender, address indexed d_contract, uint256 d_amount);\r\n\r\n    //log event for request. \r\n    event request(uint256 indexed r_id, uint32 indexed con_Id, uint32 amount, address proposed1, address proposed2, address proposed3, address proposed4, address proposed5);\r\n\r\n    //log event for judgement\r\n    event request_result(uint32 indexed _request_id, uint32 indexed _contract_id,bool _judgement);\r\n\r\n    function createSubContract(address pvt, bytes32 reg) public  onlyowner returns (address) {\r\n        address contractAdd = new SubContract(contract_id, pvt); //added parameters to pass to constructor\r\n        subContracts[contract_id] = contractAdd;\r\n        emit newContract(contract_id, reg, contractAdd, pvt);\r\n        contract_id++;\r\n        return contractAdd;\r\n    }\r\n    \r\n    //what's this shit???? who will call it? only event generating. no transfer takes place\r\n    function donate(uint256 d_id, address d_contract, uint256 d_amount) public {\r\n        emit donation(d_id, msg.sender, d_contract, d_amount);\r\n    }\r\n    \r\n    function getBalance(address add) public constant returns(uint) {\r\n        return add.balance;\r\n    }\r\n    \r\n  \r\n    function ifSeeded(address add) constant returns(bool){\r\n        SubContract subContract = SubContract(add);\r\n        return subContract.ifSeeded();\r\n    }\r\n    \r\n    function requestSeeding(address add) {\r\n        SubContract subContract = SubContract(add);\r\n        subContract.initialSeeding();\r\n    }\r\n\r\n    //register new validator\r\n    function addValidator(address _add) public onlyowner {\r\n        validators[validator_id] = Validator(true, _add);\r\n        emit newValidator(validator_id);\r\n        validator_id++;\r\n    }\r\n    \r\n    //suspend validator\r\n    function suspendValidator(uint32 id) public onlyowner {\r\n        validators[id].isActive = false;\r\n    }\r\n    \r\n    //reactivate validator\r\n    function reactiveValidator(uint32 id) public onlyowner {\r\n        validators[id].isActive = true;\r\n    }\r\n    \r\n    //request release of funds\r\n    function requestRelease(uint32 contrct_id, uint32 amount) public {\r\n        requests[request_id] = Request(contrct_id, subContracts[contrct_id], amount, validators[0].addrs, validators[1].addrs,validators[2].addrs, validators[3].addrs, validators[4].addrs, 0x0, 0, 0x0, 0, 0x0, 0, false, false);\r\n        emit request(request_id, contrct_id, amount, requests[request_id].proposed1, requests[request_id].proposed2, requests[request_id].proposed3, requests[request_id].proposed4, requests[request_id].proposed5);\r\n        request_id++;\r\n    }\r\n    \r\n    //validator will call this function for endorsement\r\n    function validate(uint32 _request_id, bool ansr) public {\r\n        //if no endorsement is made yet then assign first slot to this endorsement\r\n        if (requests[_request_id].valid1 == 0) {\r\n            if(ansr == true) {\r\n                //1 means true\r\n                requests[_request_id].valid1 = 1;\r\n            }\r\n            else {\r\n                //2 means false\r\n                requests[_request_id].valid1 = 2;\r\n            }\r\n            //store address of validator\r\n            requests[_request_id].validator1 = msg.sender;\r\n        }\r\n        //if one endorsement is made yet then assign second slot to this endorsement\r\n        else if (requests[_request_id].valid2 == 0) {\r\n            if(ansr == true) {\r\n                requests[_request_id].valid2 = 1;\r\n            }\r\n            else {\r\n                requests[_request_id].valid2 = 2;\r\n            }\r\n            requests[_request_id].validator2 = msg.sender;\r\n        }\r\n        //if two endorsements are made yet then assign last slot to this endorsement\r\n        else if (requests[_request_id].valid3 == 0) {\r\n            if(ansr == true) {\r\n                requests[_request_id].valid3 = 1;\r\n            }\r\n            else {\r\n                requests[_request_id].valid3 = 2;\r\n            }\r\n            requests[_request_id].validator3 = msg.sender;\r\n            \r\n            \r\n            //if two or three judgements are negative then below sum would be 5 or 6 else the sum would be 3 or 4\r\n            if(requests[_request_id].valid1+requests[_request_id].valid2+requests[_request_id].valid3 < 5) {\r\n                requests[_request_id].judgement = true;\r\n                requests[_request_id].isExamined = true;\r\n\r\n                SubContract cont = SubContract(requests[_request_id].conAdd);\r\n                cont.release(requests[_request_id].amount);\r\n            }\r\n            else {\r\n                requests[_request_id].judgement = false;\r\n                requests[_request_id].isExamined = true;\r\n            }\r\n            \r\n            \r\n            //log event\r\n            emit request_result(_request_id, requests[_request_id].conId, requests[_request_id].judgement);\r\n            }\r\n    }\r\n    \r\n    function getSubcontract(address add) public returns (SubContract) {\r\n        SubContract subContract = SubContract(add);\r\n        return subContract;\r\n    }\r\n    \r\n    //\"i\" is introduced just to get 5 different random numbers for 5 valdators to propose\r\n    function random(uint16 i) private view returns (uint32) {\r\n        return uint32(uint32(keccak256(block.timestamp+i, block.difficulty)))%validator_id;\r\n    }\r\n\r\n}\r\n\r\ncontract SubContract {\r\n    uint32 id;\r\n    address private wallet;\r\n    address private mainConAdd;\r\n    bool private seeded;\r\n    \r\n    //emit event for initial seeding\r\n    event init_seed(address indexed contractAddress, bytes32 str);\r\n    \r\n    //emit event for released funds\r\n    event released(address indexed contractAddress, uint32 amount);\r\n\r\n    constructor (uint32 _id, address pvt) payable public  {\r\n        id = _id;\r\n        mainConAdd = msg.sender;\r\n        wallet = pvt;\r\n    }\r\n\r\n    function ifSeeded() public returns (bool) {\r\n        return seeded;\r\n    }\r\n    \r\n    //will be called by organization from its private address\r\n    function initialSeeding() payable public {\r\n        require(seeded == false);\r\n        require(address(this).balance > 10);\r\n        wallet.transfer(10);\r\n        seeded = true;\r\n    \temit init_seed(this, \"0xSeeded\");\r\n    }\r\n\r\n    //will be called by main contract on validation of spending\r\n    function release(uint32 amount) public {\r\n        require(address(this).balance > amount);\r\n        wallet.transfer(amount);\r\n        emit released(this, amount);\r\n    }\r\n\r\n\tfunction () payable public {  \r\n\t}\r\n}\r\n",
  "sourcePath": "D:\\PROJECTS\\CrypTrust\\contracts\\MainContract.sol",
  "compiler": {
    "name": "solc",
    "version": "0.4.24+commit.e67f0147.Emscripten.clang"
  },
  "schemaVersion": "2.0.1",
  "updatedAt": "2018-08-23T00:02:47.158Z"
}