{
  "contractName": "MainContract",
  "abi": [
    {
      "constant": false,
      "inputs": [
        {
          "name": "d_id",
          "type": "uint256"
        },
        {
          "name": "d_contract",
          "type": "address"
        },
        {
          "name": "d_amount",
          "type": "uint256"
        }
      ],
      "name": "donate",
      "outputs": [],
      "payable": false,
      "stateMutability": "nonpayable",
      "type": "function"
    },
    {
      "constant": false,
      "inputs": [
        {
          "name": "_add",
          "type": "address"
        }
      ],
      "name": "addValidator",
      "outputs": [],
      "payable": false,
      "stateMutability": "nonpayable",
      "type": "function"
    },
    {
      "constant": false,
      "inputs": [
        {
          "name": "contrct_id",
          "type": "uint32"
        },
        {
          "name": "amount",
          "type": "uint32"
        }
      ],
      "name": "requestRelease",
      "outputs": [],
      "payable": false,
      "stateMutability": "nonpayable",
      "type": "function"
    },
    {
      "constant": false,
      "inputs": [
        {
          "name": "_request_id",
          "type": "uint32"
        },
        {
          "name": "ansr",
          "type": "bool"
        }
      ],
      "name": "validate",
      "outputs": [],
      "payable": false,
      "stateMutability": "nonpayable",
      "type": "function"
    },
    {
      "constant": false,
      "inputs": [
        {
          "name": "id",
          "type": "uint32"
        }
      ],
      "name": "suspendValidator",
      "outputs": [],
      "payable": false,
      "stateMutability": "nonpayable",
      "type": "function"
    },
    {
      "constant": false,
      "inputs": [
        {
          "name": "pvt",
          "type": "address"
        },
        {
          "name": "reg",
          "type": "bytes32"
        }
      ],
      "name": "createSubContract",
      "outputs": [
        {
          "name": "",
          "type": "address"
        }
      ],
      "payable": false,
      "stateMutability": "nonpayable",
      "type": "function"
    },
    {
      "constant": true,
      "inputs": [
        {
          "name": "add",
          "type": "address"
        }
      ],
      "name": "getBalance",
      "outputs": [
        {
          "name": "",
          "type": "uint256"
        }
      ],
      "payable": false,
      "stateMutability": "view",
      "type": "function"
    },
    {
      "constant": false,
      "inputs": [
        {
          "name": "id",
          "type": "uint32"
        }
      ],
      "name": "reactiveValidator",
      "outputs": [],
      "payable": false,
      "stateMutability": "nonpayable",
      "type": "function"
    },
    {
      "anonymous": false,
      "inputs": [
        {
          "indexed": true,
          "name": "id",
          "type": "uint32"
        },
        {
          "indexed": true,
          "name": "registration",
          "type": "bytes32"
        },
        {
          "indexed": false,
          "name": "contractAddress",
          "type": "address"
        },
        {
          "indexed": true,
          "name": "walletAddress",
          "type": "address"
        }
      ],
      "name": "newContract",
      "type": "event"
    },
    {
      "anonymous": false,
      "inputs": [
        {
          "indexed": true,
          "name": "validator_id",
          "type": "uint32"
        }
      ],
      "name": "newValidator",
      "type": "event"
    },
    {
      "anonymous": false,
      "inputs": [
        {
          "indexed": true,
          "name": "d_id",
          "type": "uint256"
        },
        {
          "indexed": true,
          "name": "d_sender",
          "type": "address"
        },
        {
          "indexed": true,
          "name": "d_contract",
          "type": "address"
        },
        {
          "indexed": false,
          "name": "d_amount",
          "type": "uint256"
        }
      ],
      "name": "donation",
      "type": "event"
    },
    {
      "anonymous": false,
      "inputs": [
        {
          "indexed": true,
          "name": "r_id",
          "type": "uint256"
        },
        {
          "indexed": true,
          "name": "con_Id",
          "type": "uint32"
        },
        {
          "indexed": false,
          "name": "amount",
          "type": "uint32"
        },
        {
          "indexed": false,
          "name": "proposed1",
          "type": "address"
        },
        {
          "indexed": false,
          "name": "proposed2",
          "type": "address"
        },
        {
          "indexed": false,
          "name": "proposed3",
          "type": "address"
        },
        {
          "indexed": false,
          "name": "proposed4",
          "type": "address"
        },
        {
          "indexed": false,
          "name": "proposed5",
          "type": "address"
        }
      ],
      "name": "request",
      "type": "event"
    },
    {
      "anonymous": false,
      "inputs": [
        {
          "indexed": true,
          "name": "_request_id",
          "type": "uint32"
        },
        {
          "indexed": true,
          "name": "_contract_id",
          "type": "uint32"
        },
        {
          "indexed": false,
          "name": "_judgement",
          "type": "bool"
        }
      ],
      "name": "request_result",
      "type": "event"
    }
  ],
  "bytecode": "0x6060604052336000806101000a81548173ffffffffffffffffffffffffffffffffffffffff021916908373ffffffffffffffffffffffffffffffffffffffff160217905550611cc7806100536000396000f30060606040526004361061008e576000357c0100000000000000000000000000000000000000000000000000000000900463ffffffff16806325fb2680146100935780634d238c8e146100de5780636daf3126146101175780636fc167fd1461014f57806371179d81146101835780638309f44a146101ac578063f8b2cb4f14610232578063fdf3f5741461027f575b600080fd5b341561009e57600080fd5b6100dc600480803590602001909190803573ffffffffffffffffffffffffffffffffffffffff169060200190919080359060200190919050506102a8565b005b34156100e957600080fd5b610115600480803573ffffffffffffffffffffffffffffffffffffffff16906020019091905050610313565b005b341561012257600080fd5b61014d600480803563ffffffff1690602001909190803563ffffffff169060200190919050506104b9565b005b341561015a57600080fd5b610181600480803563ffffffff169060200190919080351515906020019091905050610e63565b005b341561018e57600080fd5b6101aa600480803563ffffffff1690602001909190505061114a565b005b34156101b757600080fd5b6101f0600480803573ffffffffffffffffffffffffffffffffffffffff16906020019091908035600019169060200190919050506111e3565b604051808273ffffffffffffffffffffffffffffffffffffffff1673ffffffffffffffffffffffffffffffffffffffff16815260200191505060405180910390f35b341561023d57600080fd5b610269600480803573ffffffffffffffffffffffffffffffffffffffff1690602001909190505061140a565b6040518082815260200191505060405180910390f35b341561028a57600080fd5b6102a6600480803563ffffffff1690602001909190505061142b565b005b8173ffffffffffffffffffffffffffffffffffffffff163373ffffffffffffffffffffffffffffffffffffffff16847fc922dda2b15c47d368b5eee0cef2a2ae6926b4e3f3f6e23fecf2c3821234d9f9846040518082815260200191505060405180910390a4505050565b6000809054906101000a900473ffffffffffffffffffffffffffffffffffffffff1673ffffffffffffffffffffffffffffffffffffffff163373ffffffffffffffffffffffffffffffffffffffff1614151561036e57600080fd5b60408051908101604052806001151581526020018273ffffffffffffffffffffffffffffffffffffffff16815250600260008060189054906101000a900463ffffffff1663ffffffff1663ffffffff16815260200190815260200160002060008201518160000160006101000a81548160ff02191690831515021790555060208201518160000160016101000a81548173ffffffffffffffffffffffffffffffffffffffff021916908373ffffffffffffffffffffffffffffffffffffffff160217905550905050600060189054906101000a900463ffffffff1663ffffffff167f01aacd5fb1299ae7e8a72d4d25337d42a03859d5a078df35497681474be66eb760405160405180910390a26000601881819054906101000a900463ffffffff168092919060010191906101000a81548163ffffffff021916908363ffffffff1602179055505050565b610200604051908101604052808363ffffffff168152602001600160008563ffffffff1663ffffffff16815260200190815260200160002060009054906101000a900473ffffffffffffffffffffffffffffffffffffffff1673ffffffffffffffffffffffffffffffffffffffff1681526020018263ffffffff1681526020016002600061054760006114c4565b63ffffffff1663ffffffff16815260200190815260200160002060000160019054906101000a900473ffffffffffffffffffffffffffffffffffffffff1673ffffffffffffffffffffffffffffffffffffffff168152602001600260006105ae60016114c4565b63ffffffff1663ffffffff16815260200190815260200160002060000160019054906101000a900473ffffffffffffffffffffffffffffffffffffffff1673ffffffffffffffffffffffffffffffffffffffff1681526020016002600061061560026114c4565b63ffffffff1663ffffffff16815260200190815260200160002060000160019054906101000a900473ffffffffffffffffffffffffffffffffffffffff1673ffffffffffffffffffffffffffffffffffffffff1681526020016002600061067c60036114c4565b63ffffffff1663ffffffff16815260200190815260200160002060000160019054906101000a900473ffffffffffffffffffffffffffffffffffffffff1673ffffffffffffffffffffffffffffffffffffffff168152602001600260006106e360046114c4565b63ffffffff1663ffffffff16815260200190815260200160002060000160019054906101000a900473ffffffffffffffffffffffffffffffffffffffff1673ffffffffffffffffffffffffffffffffffffffff168152602001600073ffffffffffffffffffffffffffffffffffffffff16815260200160008152602001600073ffffffffffffffffffffffffffffffffffffffff16815260200160008152602001600073ffffffffffffffffffffffffffffffffffffffff16815260200160008152602001600015158152602001600015158152506003600080601c9054906101000a900463ffffffff1663ffffffff1663ffffffff16815260200190815260200160002060008201518160000160006101000a81548163ffffffff021916908363ffffffff16021790555060208201518160000160046101000a81548173ffffffffffffffffffffffffffffffffffffffff021916908373ffffffffffffffffffffffffffffffffffffffff16021790555060408201518160000160186101000a81548163ffffffff021916908363ffffffff16021790555060608201518160010160006101000a81548173ffffffffffffffffffffffffffffffffffffffff021916908373ffffffffffffffffffffffffffffffffffffffff16021790555060808201518160020160006101000a81548173ffffffffffffffffffffffffffffffffffffffff021916908373ffffffffffffffffffffffffffffffffffffffff16021790555060a08201518160030160006101000a81548173ffffffffffffffffffffffffffffffffffffffff021916908373ffffffffffffffffffffffffffffffffffffffff16021790555060c08201518160040160006101000a81548173ffffffffffffffffffffffffffffffffffffffff021916908373ffffffffffffffffffffffffffffffffffffffff16021790555060e08201518160050160006101000a81548173ffffffffffffffffffffffffffffffffffffffff021916908373ffffffffffffffffffffffffffffffffffffffff1602179055506101008201518160060160006101000a81548173ffffffffffffffffffffffffffffffffffffffff021916908373ffffffffffffffffffffffffffffffffffffffff16021790555061012082015181600701556101408201518160080160006101000a81548173ffffffffffffffffffffffffffffffffffffffff021916908373ffffffffffffffffffffffffffffffffffffffff160217905550610160820151816009015561018082015181600a0160006101000a81548173ffffffffffffffffffffffffffffffffffffffff021916908373ffffffffffffffffffffffffffffffffffffffff1602179055506101a082015181600b01556101c082015181600c0160006101000a81548160ff0219169083151502179055506101e082015181600c0160016101000a81548160ff0219169083151502179055509050508163ffffffff166000601c9054906101000a900463ffffffff1663ffffffff167fbf462ad3578bfcb7a94e779d29eac6a181772f0bd8ec15f017424f71c11cb53c836003600080601c9054906101000a900463ffffffff1663ffffffff1663ffffffff16815260200190815260200160002060010160009054906101000a900473ffffffffffffffffffffffffffffffffffffffff166003600080601c9054906101000a900463ffffffff1663ffffffff1663ffffffff16815260200190815260200160002060020160009054906101000a900473ffffffffffffffffffffffffffffffffffffffff166003600080601c9054906101000a900463ffffffff1663ffffffff1663ffffffff16815260200190815260200160002060030160009054906101000a900473ffffffffffffffffffffffffffffffffffffffff166003600080601c9054906101000a900463ffffffff1663ffffffff1663ffffffff16815260200190815260200160002060040160009054906101000a900473ffffffffffffffffffffffffffffffffffffffff166003600080601c9054906101000a900463ffffffff1663ffffffff1663ffffffff16815260200190815260200160002060050160009054906101000a900473ffffffffffffffffffffffffffffffffffffffff16604051808763ffffffff1663ffffffff1681526020018673ffffffffffffffffffffffffffffffffffffffff1673ffffffffffffffffffffffffffffffffffffffff1681526020018573ffffffffffffffffffffffffffffffffffffffff1673ffffffffffffffffffffffffffffffffffffffff1681526020018473ffffffffffffffffffffffffffffffffffffffff1673ffffffffffffffffffffffffffffffffffffffff1681526020018373ffffffffffffffffffffffffffffffffffffffff1673ffffffffffffffffffffffffffffffffffffffff1681526020018273ffffffffffffffffffffffffffffffffffffffff1673ffffffffffffffffffffffffffffffffffffffff168152602001965050505050505060405180910390a36000601c81819054906101000a900463ffffffff168092919060010191906101000a81548163ffffffff021916908363ffffffff160217905550505050565b6000600360008463ffffffff1663ffffffff168152602001908152602001600020600701541415610f5757600115158115151415610ec8576001600360008463ffffffff1663ffffffff16815260200190815260200160002060070181905550610ef1565b6002600360008463ffffffff1663ffffffff168152602001908152602001600020600701819055505b33600360008463ffffffff1663ffffffff16815260200190815260200160002060060160006101000a81548173ffffffffffffffffffffffffffffffffffffffff021916908373ffffffffffffffffffffffffffffffffffffffff160217905550611146565b6000600360008463ffffffff1663ffffffff16815260200190815260200160002060090154141561104b57600115158115151415610fbc576001600360008463ffffffff1663ffffffff16815260200190815260200160002060090181905550610fe5565b6002600360008463ffffffff1663ffffffff168152602001908152602001600020600901819055505b33600360008463ffffffff1663ffffffff16815260200190815260200160002060080160006101000a81548173ffffffffffffffffffffffffffffffffffffffff021916908373ffffffffffffffffffffffffffffffffffffffff160217905550611145565b6000600360008463ffffffff1663ffffffff168152602001908152602001600020600b01541415611144576001151581151514156110b0576001600360008463ffffffff1663ffffffff168152602001908152602001600020600b01819055506110d9565b6002600360008463ffffffff1663ffffffff168152602001908152602001600020600b01819055505b33600360008463ffffffff1663ffffffff168152602001908152602001600020600a0160006101000a81548173ffffffffffffffffffffffffffffffffffffffff021916908373ffffffffffffffffffffffffffffffffffffffff1602179055506111438261151d565b5b5b5b5050565b6000809054906101000a900473ffffffffffffffffffffffffffffffffffffffff1673ffffffffffffffffffffffffffffffffffffffff163373ffffffffffffffffffffffffffffffffffffffff161415156111a557600080fd5b6000600260008363ffffffff1663ffffffff16815260200190815260200160002060000160006101000a81548160ff02191690831515021790555050565b6000806000809054906101000a900473ffffffffffffffffffffffffffffffffffffffff1673ffffffffffffffffffffffffffffffffffffffff163373ffffffffffffffffffffffffffffffffffffffff1614151561124157600080fd5b600060149054906101000a900463ffffffff168461125d611837565b808363ffffffff1663ffffffff1681526020018273ffffffffffffffffffffffffffffffffffffffff1673ffffffffffffffffffffffffffffffffffffffff16815260200192505050604051809103906000f08015156112bc57600080fd5b905080600160008060149054906101000a900463ffffffff1663ffffffff1663ffffffff16815260200190815260200160002060006101000a81548173ffffffffffffffffffffffffffffffffffffffff021916908373ffffffffffffffffffffffffffffffffffffffff1602179055508373ffffffffffffffffffffffffffffffffffffffff168360001916600060149054906101000a900463ffffffff1663ffffffff167ff511023068b88853e12756c72e7ee9d0864f173b6bc5bda808597d864fea954184604051808273ffffffffffffffffffffffffffffffffffffffff1673ffffffffffffffffffffffffffffffffffffffff16815260200191505060405180910390a46000601481819054906101000a900463ffffffff168092919060010191906101000a81548163ffffffff021916908363ffffffff160217905550508091505092915050565b60008173ffffffffffffffffffffffffffffffffffffffff16319050919050565b6000809054906101000a900473ffffffffffffffffffffffffffffffffffffffff1673ffffffffffffffffffffffffffffffffffffffff163373ffffffffffffffffffffffffffffffffffffffff1614151561148657600080fd5b6001600260008363ffffffff1663ffffffff16815260200190815260200160002060000160006101000a81548160ff02191690831515021790555050565b60008060189054906101000a900463ffffffff1663ffffffff168261ffff16420144604051808381526020018281526020019250505060405180910390206001900463ffffffff1681151561151557fe5b069050919050565b60006005600360008463ffffffff1663ffffffff168152602001908152602001600020600b0154600360008563ffffffff1663ffffffff16815260200190815260200160002060090154600360008663ffffffff1663ffffffff168152602001908152602001600020600701540101101561160d576001600360008463ffffffff1663ffffffff168152602001908152602001600020600c0160016101000a81548160ff0219169083151502179055506001600360008463ffffffff1663ffffffff168152602001908152602001600020600c0160006101000a81548160ff021916908315150217905550611684565b6000600360008463ffffffff1663ffffffff168152602001908152602001600020600c0160016101000a81548160ff0219169083151502179055506001600360008463ffffffff1663ffffffff168152602001908152602001600020600c0160006101000a81548160ff0219169083151502179055505b600360008363ffffffff1663ffffffff16815260200190815260200160002060000160049054906101000a900473ffffffffffffffffffffffffffffffffffffffff1690508073ffffffffffffffffffffffffffffffffffffffff1663dda42b37600360008563ffffffff1663ffffffff16815260200190815260200160002060000160189054906101000a900463ffffffff166040518263ffffffff167c0100000000000000000000000000000000000000000000000000000000028152600401808263ffffffff1663ffffffff168152602001915050600060405180830381600087803b151561177557600080fd5b6102c65a03f1151561178657600080fd5b505050600360008363ffffffff1663ffffffff16815260200190815260200160002060000160009054906101000a900463ffffffff1663ffffffff168263ffffffff167fac5fcc02740a04af29c8a65a5cb1bf6b1e4ef38000235ce6acea9ea3fc2277cd600360008663ffffffff1663ffffffff168152602001908152602001600020600c0160019054906101000a900460ff16604051808215151515815260200191505060405180910390a35050565b6040516104548061184883390190560060606040526000600160146101000a81548160ff02191690831515021790555060405160408061045483398101604052808051906020019091908051906020019091905050816000806101000a81548163ffffffff021916908363ffffffff16021790555033600160006101000a81548173ffffffffffffffffffffffffffffffffffffffff021916908373ffffffffffffffffffffffffffffffffffffffff16021790555080600060046101000a81548173ffffffffffffffffffffffffffffffffffffffff021916908373ffffffffffffffffffffffffffffffffffffffff160217905550505061035d806100f76000396000f30060606040526004361061004c576000357c0100000000000000000000000000000000000000000000000000000000900463ffffffff168063dda42b371461004e578063e63ab45f14610077575b005b341561005957600080fd5b610075600480803563ffffffff16906020019091905050610081565b005b61007f6101c5565b005b600160009054906101000a900473ffffffffffffffffffffffffffffffffffffffff1673ffffffffffffffffffffffffffffffffffffffff163373ffffffffffffffffffffffffffffffffffffffff161480156100fa57508063ffffffff163073ffffffffffffffffffffffffffffffffffffffff1631115b156101c257600060049054906101000a900473ffffffffffffffffffffffffffffffffffffffff1673ffffffffffffffffffffffffffffffffffffffff166108fc8263ffffffff169081150290604051600060405180830381858888f19350505050151561016757600080fd5b3073ffffffffffffffffffffffffffffffffffffffff167f3b01ce667eee23eb5673590a6476637ce7e1cb4db6024b8490223b5665979d5082604051808263ffffffff1663ffffffff16815260200191505060405180910390a25b50565b600060049054906101000a900473ffffffffffffffffffffffffffffffffffffffff1673ffffffffffffffffffffffffffffffffffffffff163373ffffffffffffffffffffffffffffffffffffffff16148015610235575060001515600160149054906101000a900460ff161515145b80156102585750600a3073ffffffffffffffffffffffffffffffffffffffff1631115b1561032f57600060049054906101000a900473ffffffffffffffffffffffffffffffffffffffff1673ffffffffffffffffffffffffffffffffffffffff166108fc600a9081150290604051600060405180830381858888f1935050505015156102c057600080fd5b3073ffffffffffffffffffffffffffffffffffffffff167fd10e6e076638bde6b2253e70a33e7c64c330fcdfab04f52c0113307612ddf7d860405180807f3078536565646564000000000000000000000000000000000000000000000000815250602001905060405180910390a25b5600a165627a7a72305820a830252b488c503a20e6df03565ea8024fea93c8b517417c2df8fd9b25b487a90029a165627a7a723058205e42aff2794d5de7b0b0c507b2d55d56be2f33b15eee7763c49a12a2a6b7f1240029",
  "source": "pragma solidity ^0.4.19;\r\n\r\ncontract Owned {\r\n    address owner;\r\n\r\n    modifier onlyowner() {\r\n        require(msg.sender == owner);\r\n        _;\r\n    }\r\n\r\n    function Owned() public {\r\n        owner = msg.sender;\r\n    }\r\n}\r\n\r\ncontract MainContract is Owned {\r\n    uint32 contract_id;\r\n    uint32 validator_id;\r\n    uint32 request_id;\r\n\r\n    //mapping organization id to subcontracts\r\n    mapping(uint32 => address) subContracts;  \r\n    \r\n    //for validator management make tructure for validator\r\n    struct Validator {\r\n        bool isActive;\r\n        address addrs;\r\n    }\r\n    \r\n    mapping(uint32 => Validator) validators;\r\n    \r\n    //for requests management\r\n    struct Request {\r\n        uint32 conId;\r\n        address conAdd;\r\n        uint32 amount;\r\n        address proposed1;\r\n        address proposed2;\r\n        address proposed3;\r\n        address proposed4;\r\n        address proposed5;\r\n        \r\n        address validator1;\r\n        uint valid1;\r\n        address validator2;\r\n        uint valid2;\r\n        address validator3;\r\n        uint valid3;\r\n        bool isExamined;\r\n        bool judgement;\r\n    }\r\n    \r\n    mapping(uint32 => Request) requests;\r\n    \r\n    //log event for new registration of organization\r\n\tevent newContract(uint32 indexed id, bytes32 indexed registration, address contractAddress, address indexed walletAddress);\r\n    \r\n    //log event for new validator created\r\n\tevent newValidator(uint32 indexed validator_id);\r\n    \r\n    //log event for donation. shit!!!\r\n    event donation(uint256 indexed d_id, address indexed d_sender, address indexed d_contract, uint256 d_amount);\r\n\r\n    //log event for request. \r\n    event request(uint256 indexed r_id, uint32 indexed con_Id, uint32 amount, address proposed1, address proposed2, address proposed3, address proposed4, address proposed5);\r\n\r\n\r\n    //log event for judgement\r\n    event request_result(uint32 indexed _request_id, uint32 indexed _contract_id, bool _judgement);\r\n\r\n    function createSubContract(address pvt, bytes32 reg) public  onlyowner returns (address) {\r\n        \r\n        address contractAdd = new SubContract(contract_id, pvt); //added parameters to pass to constructor\r\n        subContracts[contract_id] = contractAdd;\r\n        newContract(contract_id, reg, contractAdd, pvt);\r\n        contract_id++;\r\n        return contractAdd;\r\n    }\r\n    \r\n    //what's this shit???? who will call it? only event generating. no transfer takes place\r\n    function donate(uint256 d_id, address d_contract, uint256 d_amount) public {\r\n        donation(d_id, msg.sender, d_contract, d_amount);\r\n    }\r\n    \r\n    function getBalance(address add) public constant returns(uint) {\r\n        return add.balance;\r\n    }\r\n    \r\n    //register new validator\r\n    function addValidator(address _add) public onlyowner {\r\n        validators[validator_id] = Validator(true, _add);\r\n        newValidator(validator_id);\r\n        validator_id++;\r\n    }\r\n    \r\n    //suspend validator\r\n    function suspendValidator(uint32 id) public onlyowner {\r\n        validators[id].isActive = false;\r\n    }\r\n    \r\n    //reactivate validator\r\n    function reactiveValidator(uint32 id) public onlyowner {\r\n        validators[id].isActive = true;\r\n    }\r\n    \r\n    //request release of funds\r\n    function requestRelease(uint32 contrct_id, uint32 amount) public {\r\n        \r\n        requests[request_id] = Request(contrct_id, subContracts[contrct_id], amount, validators[random(0)].addrs, validators[random(1)].addrs,validators[random(2)].addrs, validators[random(3)].addrs, validators[random(4)].addrs, 0x0, 0, 0x0, 0, 0x0, 0, false, false);\r\n        request(request_id, contrct_id, amount, requests[request_id].proposed1, requests[request_id].proposed2, requests[request_id].proposed3, requests[request_id].proposed4, requests[request_id].proposed5);\r\n        request_id++;\r\n    }\r\n    \r\n    //validator will call this function for endorsement\r\n    function validate(uint32 _request_id, bool ansr) public {\r\n        //if no endorsement is made yet then assign first slot to this endorsement\r\n        if (requests[_request_id].valid1 == 0) {\r\n            if(ansr == true) {\r\n                //1 means true\r\n                requests[_request_id].valid1 = 1;\r\n            }\r\n            else {\r\n                //2 means false\r\n                requests[_request_id].valid1 = 2;\r\n            }\r\n            //store address of validator\r\n            requests[_request_id].validator1 = msg.sender;\r\n        }\r\n        //if one endorsement is made yet then assign second slot to this endorsement\r\n        else if (requests[_request_id].valid2 == 0) {\r\n            if(ansr == true) {\r\n                requests[_request_id].valid2 = 1;\r\n            }\r\n            else {\r\n                requests[_request_id].valid2 = 2;\r\n            }\r\n            requests[_request_id].validator2 = msg.sender;\r\n        }\r\n        //if two endorsements are made yet then assign last slot to this endorsement\r\n        else if (requests[_request_id].valid3 == 0) {\r\n            if(ansr == true) {\r\n                requests[_request_id].valid3 = 1;\r\n            }\r\n            else {\r\n                requests[_request_id].valid3 = 2;\r\n            }\r\n            requests[_request_id].validator3 = msg.sender;\r\n            //after receiving three judgements, conclude the result\r\n            judge(_request_id);\r\n        }\r\n    }\r\n    \r\n    function judge(uint32 _request_id) private {\r\n        //if two or three judgements are negative then below sum would be 5 or 6 else the sum would be 3 or 4\r\n        if(requests[_request_id].valid1+requests[_request_id].valid2+requests[_request_id].valid3 < 5) {\r\n            requests[_request_id].judgement = true;\r\n            requests[_request_id].isExamined = true;\r\n        }\r\n        else {\r\n            requests[_request_id].judgement = false;\r\n            requests[_request_id].isExamined = true;\r\n        }\r\n        \r\n        //call subcontract to release funds\r\n        SubContract cont = SubContract(requests[_request_id].conAdd);\r\n        cont.release(requests[_request_id].amount);\r\n        \r\n        //log event\r\n        request_result(_request_id, requests[_request_id].conId, requests[_request_id].judgement);\r\n    }\r\n    \r\n    //\"i\" is introduced just to get 5 different random numbers for 5 valdators to propose\r\n    function random(uint16 i) private view returns (uint32) {\r\n        return uint32(uint32(keccak256(block.timestamp+i, block.difficulty)))%validator_id;\r\n    }\r\n\r\n}\r\n\r\ncontract SubContract {\r\n    uint32 id;\r\n    address private wallet ;\r\n    address private mainConAdd;\r\n    bool private seeded = false;\r\n    \r\n    //emit event for initial seeding\r\n    event init_seed(address indexed contractAddress, bytes32 str);\r\n    \r\n    //emit event for released funds\r\n    event released(address indexed contractAddress, uint32 amount);\r\n\r\n    function SubContract (uint32 _id, address pvt) payable public  {\r\n        id = _id;\r\n        mainConAdd = msg.sender;\r\n        wallet = pvt;\r\n    }\r\n    \r\n    //will be called by organization from its private address\r\n    function initialSeeding() payable public {\r\n        if(msg.sender == wallet && seeded == false && address(this).balance > 10) {\r\n            wallet.transfer(10);\r\n        \tinit_seed(this, \"0xSeeded\");\r\n        }\r\n    }\r\n\r\n    //will be called by main contract on validation of spending\r\n    function release(uint32 amount) public {\r\n        if(msg.sender == mainConAdd && address(this).balance > amount) {\r\n            wallet.transfer(amount);\r\n            released(this, amount);\r\n        }\r\n    }\r\n\r\n\tfunction () payable public {  \r\n\t}\r\n}\r\n",
  "sourcePath": "D:\\PROJECTS\\CrypTrust\\contracts\\MainContract.sol",
  "compiler": {
    "name": "solc",
    "version": "0.4.19+commit.c4cbbb05.Emscripten.clang"
  },
  "schemaVersion": "2.0.0",
  "updatedAt": "2018-08-04T22:07:19.891Z"
}