{
  "contractName": "SubContract",
  "abi": [
    {
      "inputs": [
        {
          "name": "_id",
          "type": "uint32"
        },
        {
          "name": "pvt",
          "type": "address"
        }
      ],
      "payable": true,
      "stateMutability": "payable",
      "type": "constructor"
    },
    {
      "payable": true,
      "stateMutability": "payable",
      "type": "fallback"
    },
    {
      "anonymous": false,
      "inputs": [
        {
          "indexed": true,
          "name": "contractAddress",
          "type": "address"
        },
        {
          "indexed": false,
          "name": "str",
          "type": "bytes32"
        }
      ],
      "name": "init_seed",
      "type": "event"
    },
    {
      "anonymous": false,
      "inputs": [
        {
          "indexed": true,
          "name": "contractAddress",
          "type": "address"
        },
        {
          "indexed": false,
          "name": "amount",
          "type": "uint32"
        }
      ],
      "name": "released",
      "type": "event"
    },
    {
      "constant": false,
      "inputs": [],
      "name": "ifSeeded",
      "outputs": [
        {
          "name": "",
          "type": "bool"
        }
      ],
      "payable": false,
      "stateMutability": "nonpayable",
      "type": "function"
    },
    {
      "constant": false,
      "inputs": [],
      "name": "initialSeeding",
      "outputs": [],
      "payable": true,
      "stateMutability": "payable",
      "type": "function"
    },
    {
      "constant": false,
      "inputs": [
        {
          "name": "amount",
          "type": "uint32"
        }
      ],
      "name": "release",
      "outputs": [],
      "payable": false,
      "stateMutability": "nonpayable",
      "type": "function"
    }
  ],
  "bytecode": "0x608060405260405160408061041e8339810180604052810190808051906020019092919080519060200190929190505050816000806101000a81548163ffffffff021916908363ffffffff16021790555033600160006101000a81548173ffffffffffffffffffffffffffffffffffffffff021916908373ffffffffffffffffffffffffffffffffffffffff16021790555080600060046101000a81548173ffffffffffffffffffffffffffffffffffffffff021916908373ffffffffffffffffffffffffffffffffffffffff160217905550505061033b806100e36000396000f300608060405260043610610057576000357c0100000000000000000000000000000000000000000000000000000000900463ffffffff168063dda42b3714610059578063e63ab45f1461008c578063e9b37bf614610096575b005b34801561006557600080fd5b5061008a600480360381019080803563ffffffff1690602001909291905050506100c5565b005b6100946101bc565b005b3480156100a257600080fd5b506100ab6102f8565b604051808215151515815260200191505060405180910390f35b8063ffffffff163073ffffffffffffffffffffffffffffffffffffffff16311115156100f057600080fd5b600060049054906101000a900473ffffffffffffffffffffffffffffffffffffffff1673ffffffffffffffffffffffffffffffffffffffff166108fc8263ffffffff169081150290604051600060405180830381858888f1935050505015801561015e573d6000803e3d6000fd5b503073ffffffffffffffffffffffffffffffffffffffff167f3b01ce667eee23eb5673590a6476637ce7e1cb4db6024b8490223b5665979d5082604051808263ffffffff1663ffffffff16815260200191505060405180910390a250565b60001515600160149054906101000a900460ff1615151415156101de57600080fd5b600a3073ffffffffffffffffffffffffffffffffffffffff163111151561020457600080fd5b600060049054906101000a900473ffffffffffffffffffffffffffffffffffffffff1673ffffffffffffffffffffffffffffffffffffffff166108fc600a9081150290604051600060405180830381858888f1935050505015801561026d573d6000803e3d6000fd5b5060018060146101000a81548160ff0219169083151502179055503073ffffffffffffffffffffffffffffffffffffffff167fd10e6e076638bde6b2253e70a33e7c64c330fcdfab04f52c0113307612ddf7d860405180807f3078536565646564000000000000000000000000000000000000000000000000815250602001905060405180910390a2565b6000600160149054906101000a900460ff169050905600a165627a7a72305820098e6bf54050c828cda310dc5b8ed4073e3b8c653333093d826b37f9a902108d0029",
  "source": "pragma solidity ^0.4.19;\r\n\r\ncontract Owned {\r\n    address owner;\r\n\r\n    modifier onlyowner() {\r\n        require(msg.sender == owner);\r\n        _;\r\n    }\r\n\r\n    constructor() public {\r\n        owner = msg.sender;\r\n    }\r\n}\r\n\r\ncontract MainContract is Owned {\r\n    uint32 contract_id;\r\n    uint32 validator_id;\r\n    uint32 request_id;\r\n\r\n    //mapping organization id to subcontracts\r\n    mapping(uint32 => address) subContracts;  \r\n    \r\n    //for validator management make tructure for validator\r\n    struct Validator {\r\n        bool isActive;\r\n        address addrs;\r\n    }\r\n    \r\n    mapping(uint32 => Validator) validators;\r\n    \r\n    //for requests management\r\n    struct Request {\r\n        uint32 conId;\r\n        address conAdd;\r\n        uint32 amount;\r\n        address proposed1;\r\n        address proposed2;\r\n        address proposed3;\r\n        address proposed4;\r\n        address proposed5;\r\n        \r\n        address validator1;\r\n        uint valid1;\r\n        address validator2;\r\n        uint valid2;\r\n        address validator3;\r\n        uint valid3;\r\n        bool isExamined;\r\n        bool judgement;\r\n    }\r\n\r\n    mapping(uint32 => Request) requests;\r\n    \r\n    event released(address indexed contractAddress, uint32 amount);\r\n\r\n    //log event for new registration of organization\r\n\tevent newContract(uint32 indexed id, bytes32 indexed registration, address contractAddress, address indexed walletAddress);\r\n    \r\n    //log event for new validator created\r\n\tevent newValidator(uint32 indexed validator_id);\r\n    \r\n    //log event for donation. shit!!!\r\n    event donation(uint256 indexed d_id, address indexed d_sender, address indexed d_contract, uint256 d_amount);\r\n\r\n    //log event for request. \r\n    event request(uint256 indexed r_id, uint32 indexed con_Id, uint32 amount, address proposed1, address proposed2, address proposed3, address proposed4, address proposed5);\r\n\r\n    //log event for judgement\r\n    event request_result(uint32 indexed _request_id, uint32 indexed _contract_id,bool _judgement);\r\n\r\n    function createSubContract(address pvt, bytes32 reg) public  onlyowner returns (address) {\r\n        address contractAdd = new SubContract(contract_id, pvt); //added parameters to pass to constructor\r\n        subContracts[contract_id] = contractAdd;\r\n        emit newContract(contract_id, reg, contractAdd, pvt);\r\n        contract_id++;\r\n        return contractAdd;\r\n    }\r\n    \r\n    //what's this shit???? who will call it? only event generating. no transfer takes place\r\n    function donate(uint256 d_id, address d_contract, uint256 d_amount) public {\r\n        emit donation(d_id, msg.sender, d_contract, d_amount);\r\n    }\r\n    \r\n    function getBalance(address add) public constant returns(uint) {\r\n        return add.balance;\r\n    }\r\n    \r\n  \r\n    function ifSeeded(address add) constant returns(bool){\r\n        SubContract subContract = SubContract(add);\r\n        return subContract.ifSeeded();\r\n    }\r\n    \r\n    function requestSeeding(address add) {\r\n        SubContract subContract = SubContract(add);\r\n        subContract.initialSeeding();\r\n    }\r\n\r\n    //register new validator\r\n    function addValidator(address _add) public onlyowner {\r\n        validators[validator_id] = Validator(true, _add);\r\n        emit newValidator(validator_id);\r\n        validator_id++;\r\n    }\r\n    \r\n    //suspend validator\r\n    function suspendValidator(uint32 id) public onlyowner {\r\n        validators[id].isActive = false;\r\n    }\r\n    \r\n    //reactivate validator\r\n    function reactiveValidator(uint32 id) public onlyowner {\r\n        validators[id].isActive = true;\r\n    }\r\n    \r\n    //request release of funds\r\n    function requestRelease(uint32 contrct_id, uint32 amount) public {\r\n        requests[request_id] = Request(contrct_id, subContracts[contrct_id], amount, validators[0].addrs, validators[1].addrs,validators[2].addrs, validators[3].addrs, validators[4].addrs, 0x0, 0, 0x0, 0, 0x0, 0, false, false);\r\n        emit request(request_id, contrct_id, amount, requests[request_id].proposed1, requests[request_id].proposed2, requests[request_id].proposed3, requests[request_id].proposed4, requests[request_id].proposed5);\r\n        request_id++;\r\n    }\r\n    \r\n    //validator will call this function for endorsement\r\n    function validate(uint32 _request_id, bool ansr) public {\r\n        //if no endorsement is made yet then assign first slot to this endorsement\r\n        if (requests[_request_id].valid1 == 0) {\r\n            if(ansr == true) {\r\n                //1 means true\r\n                requests[_request_id].valid1 = 1;\r\n            }\r\n            else {\r\n                //2 means false\r\n                requests[_request_id].valid1 = 2;\r\n            }\r\n            //store address of validator\r\n            requests[_request_id].validator1 = msg.sender;\r\n        }\r\n        //if one endorsement is made yet then assign second slot to this endorsement\r\n        else if (requests[_request_id].valid2 == 0) {\r\n            if(ansr == true) {\r\n                requests[_request_id].valid2 = 1;\r\n            }\r\n            else {\r\n                requests[_request_id].valid2 = 2;\r\n            }\r\n            requests[_request_id].validator2 = msg.sender;\r\n        }\r\n        //if two endorsements are made yet then assign last slot to this endorsement\r\n        else if (requests[_request_id].valid3 == 0) {\r\n            if(ansr == true) {\r\n                requests[_request_id].valid3 = 1;\r\n            }\r\n            else {\r\n                requests[_request_id].valid3 = 2;\r\n            }\r\n            requests[_request_id].validator3 = msg.sender;\r\n            \r\n            \r\n            //if two or three judgements are negative then below sum would be 5 or 6 else the sum would be 3 or 4\r\n            if(requests[_request_id].valid1+requests[_request_id].valid2+requests[_request_id].valid3 < 5) {\r\n                requests[_request_id].judgement = true;\r\n                requests[_request_id].isExamined = true;\r\n\r\n                SubContract cont = SubContract(requests[_request_id].conAdd);\r\n                cont.release(requests[_request_id].amount);\r\n            }\r\n            else {\r\n                requests[_request_id].judgement = false;\r\n                requests[_request_id].isExamined = true;\r\n            }\r\n            \r\n            \r\n            //log event\r\n            emit request_result(_request_id, requests[_request_id].conId, requests[_request_id].judgement);\r\n            }\r\n    }\r\n    \r\n    function getSubcontract(address add) public returns (SubContract) {\r\n        SubContract subContract = SubContract(add);\r\n        return subContract;\r\n    }\r\n    \r\n    //\"i\" is introduced just to get 5 different random numbers for 5 valdators to propose\r\n    function random(uint16 i) private view returns (uint32) {\r\n        return uint32(uint32(keccak256(block.timestamp+i, block.difficulty)))%validator_id;\r\n    }\r\n\r\n}\r\n\r\ncontract SubContract {\r\n    uint32 id;\r\n    address private wallet;\r\n    address private mainConAdd;\r\n    bool private seeded;\r\n    \r\n    //emit event for initial seeding\r\n    event init_seed(address indexed contractAddress, bytes32 str);\r\n    \r\n    //emit event for released funds\r\n    event released(address indexed contractAddress, uint32 amount);\r\n\r\n    constructor (uint32 _id, address pvt) payable public  {\r\n        id = _id;\r\n        mainConAdd = msg.sender;\r\n        wallet = pvt;\r\n    }\r\n\r\n    function ifSeeded() public returns (bool) {\r\n        return seeded;\r\n    }\r\n    \r\n    //will be called by organization from its private address\r\n    function initialSeeding() payable public {\r\n        require(seeded == false);\r\n        require(address(this).balance > 10);\r\n        wallet.transfer(10);\r\n        seeded = true;\r\n    \temit init_seed(this, \"0xSeeded\");\r\n    }\r\n\r\n    //will be called by main contract on validation of spending\r\n    function release(uint32 amount) public {\r\n        require(address(this).balance > amount);\r\n        wallet.transfer(amount);\r\n        emit released(this, amount);\r\n    }\r\n\r\n\tfunction () payable public {  \r\n\t}\r\n}\r\n",
  "sourcePath": "D:\\PROJECTS\\CrypTrust\\contracts\\MainContract.sol",
  "compiler": {
    "name": "solc",
    "version": "0.4.24+commit.e67f0147.Emscripten.clang"
  },
  "schemaVersion": "2.0.1",
  "updatedAt": "2018-08-23T00:02:46.131Z"
}